:020000040800F2
:100000000028002031170008A9040008AB040008EC
:10001000AD040008AF040008B104000800000000AF
:10002000000000000000000000000000B304000811
:10003000B504000800000000B7040008B904000877
:100040007917000879170008791700087917000850
:100050007917000879170008791700087917000840
:100060007917000879170008791700087917000830
:100070007917000879170008791700087917000820
:100080007917000879170008791700087917000810
:100090007917000879170008791700087917000800
:1000A00079170008791700087917000879170008F0
:1000B0007917000879170008000000007917000878
:1000C0007917000800000000000000007917000800
:1000D00000000000791700087917000800000000F0
:1000E0007917000879170008791700080000000048
:1000F0000000000000000000000000000000000000
:0C01000000000000000000005FF808F1A3
:10010C000348044B834202D0034B03B1184770479A
:10011C000C0000200C0000200000000005480649DF
:10012C000B1AD90F01EBA301491002D0034B03B1F9
:10013C00184770470C0000200C0000200000000045
:10014C0010B5064C237843B9FFF7DAFF044B13B113
:10015C000448AFF300800123237010BD0C00002075
:10016C00000000007C17000808B5044B1BB10449C3
:10017C000448AFF30080BDE80840CFE70000000062
:10018C00100000207C17000870B50D4E0D4D761B2D
:10019C00B61006D0002455F8043B01349847A6420B
:1001AC00F9D1094E094D01F0E3FA761BB61006D0D1
:1001BC00002455F8043B01349847A642F9D170BD90
:1001CC00D8180008D8180008DC180008D81800083F
:1001DC0072B6FEE700B591B000230793089309931C
:1001EC000C930193029303930493059302220692BA
:1001FC0001210A9110210B910D920E934FF4601373
:10020C000F9306A800F03CFB80B90F230193022149
:10021C000291002303934FF480620492059301A88A
:10022C0000F008FE20B911B05DF804FBFFF7D0FF19
:10023C00FFF7CEFF08B500F0D5FAFFF7CBFF00F0C3
:10024C0013F800F085F800F0D3F84FF4005104488F
:10025C0001F0EEF84FF4FA6000F0E8FAF5E700BFB1
:10026C00001001407047000030B589B000230493A2
:10027C0005930693079303F1804303F504339A69BE
:10028C0042F010029A619A6902F010020092009AF0
:10029C009A6942F020029A619A6902F02002019256
:1002AC00019A9A6942F004029A619A6902F0040276
:1002BC000292029A9A6942F008029A619B6903F0D1
:1002CC0008030393039B1D4D01224FF40051284654
:1002DC0001F092F84FF40053049301230593069315
:1002EC000223079304A9284600F0DEFE4FF4404396
:1002FC0004930324059404A9284600F0D5FE049425
:10030C00059404A90E4800F0CFFE49F6FF130493A0
:10031C00059404A90B4800F0C7FE4FF63F730493F5
:10032C00059404A9084800F0BFFE084A536843F03E
:10033C00E06343F40043536009B030BD001001404A
:10034C000014014000080140000C01400000014075
:10035C0008B50B480B4B03600B4B436000238360C9
:10036C00C3604FF48042026143618361C3610362E5
:10037C0000F0C2F800B908BDFFF72AFFFBE700BF89
:10038C002800002000540040A086010010B586B063
:10039C00002302930393049305930268114B9A4232
:1003AC0001D006B010BD104CA36943F00803A36143
:1003BC00A36903F008030093009BC023029312234C
:1003CC0003930023049302A9084800F06DFEE3692F
:1003DC0043F40013E361E36903F400130193019BFD
:1003EC00DFE700BF0054004000100240000C014049
:1003FC0008B50A480A4B03604FF4E133436000230D
:10040C008360C36003610C2242618361C36101F0AC
:10041C0019F900B908BDFFF7DBFEFBE77C000020F3
:10042C000038014010B586B0002302930393049367
:10043C0005930268174B9A4201D006B010BD03F524
:10044C0058439A6942F480429A619A6902F4804254
:10045C000092009A9A6942F004029A619B6903F037
:10046C0004030193019B4FF4007302930223039343
:10047C0003230593084C02A9204600F015FE4FF407
:10048C008063029300230393049302A9204600F097
:10049C000BFED2E70038014000080140FEE7FEE702
:1004AC00FEE7FEE7FEE770477047704708B500F0BF
:1004BC00ABF908BD82B00E4B9A6942F001029A6109
:1004CC009A6902F001020092009ADA6942F08052B5
:1004DC00DA61DB6903F080530193019B054A536891
:1004EC0023F0E06343F00073536002B0704700BF29
:1004FC000010024000000140002800F03981F8B5DE
:10050C00044602689C4B9A4204D040F2D1119B489D
:10051C00FFF7A8FE6368013B994A934200F2A98059
:10052C00A3681BB1B3F5804F40F0A980E36823F4B6
:10053C007F7323F00303002B40F0A7802369B3F5EE
:10054C00804F03D0B3F5404F40F0A5806369012B79
:10055C0000F2A780A36933F0FE0340F0A880E369A2
:10056C0013B1402B40F0A980236A13B1802B40F0CB
:10057C00AA8094F83D30002B00F0AB80242384F843
:10058C003D302268136823F001031360226813685E
:10059C0043F4004313602268136823F40043136090
:1005AC0000F062FD6268774B9A4200F29880764BBD
:1005BC0098428CBF00230123002B40F0DB80734D4D
:1005CC00A5FB0035AF0C2668716821F03F0141EAAC
:1005DC009541716021680B6A23F03F036568694A95
:1005EC00954200F282807A1C13430B622568E969FC
:1005FC0021F44F4121F0FF016368624A93427ED897
:10060C0001385B00B0FBF3F0013040F6FC7318428C
:10061C0000F0AA80C0F30B030B43EB6121680B685D
:10062C0023F0C003E269206A024313430B60216884
:10063C008B6823F4034323F0FF032269E068024331
:10064C0013438B602168CB6823F0FF036269A069B8
:10065C0002431343CB602268136843F00103136019
:10066C0000202064202384F83D30206384F83E0071
:10067C00F8BD4FF4E9714148FFF7F4FD50E740F243
:10068C00D3113E48FFF7EEFD50E74FF4EA713B48BB
:10069C00FFF7E8FD52E740F2D5113848FFF7E2FDCD
:1006AC0054E74FF4EB713548FFF7DCFD52E740F2AD
:1006BC00D7113248FFF7D6FD51E74FF4EC712F48B4
:1006CC00FFF7D0FD50E740F2D9112C48FFF7CAFDD7
:1006DC004FE784F83C302046FFF758FE4EE72C4B92
:1006EC0098428CBF0023012366E74FF4967202FBFD
:1006FC0007F2284DA5FB02529209013274E7A26859
:10070C00BAB9461E03EB4307B6FBF7F60136C6F340
:10071C000B06B6FA86F6760946BBC2B9421E03EB47
:10072C004303B2FBF3F20132C2F30B0242F4004377
:10073C0072E7461E03EB830707EB8707B6FBF7F65A
:10074C000136C6F30B06B6FA86F67609E4E7421EC6
:10075C0003EB830303EB8303B2FBF3F20132C2F32B
:10076C000B0242F4404357E7042355E7012353E7B8
:10077C000120704701207BE70054004094170008CB
:10078C007F1A0600A08601007F841E0083DE1B43B7
:10079C00FF083D00D34D621010B504460E4B18787F
:1007AC004FF47A73B3FBF0F30C4A1068B0FBF3F020
:1007BC0000F0B8FE68B90F2C01D901200AE0002224
:1007CC0021464FF0FF3000F067FE054B1C60002007
:1007DC0000E0012010BD00BF000000200800002038
:1007EC000400002008B5074A136843F01003136097
:1007FC00032000F033FE0F20FFF7CEFFFFF75AFE69
:10080C00002008BD00200240034A1168034B1B78EE
:10081C000B441360704700BFC00000200000002094
:10082C00014B1868704700BFC000002038B5044663
:10083C00FFF7F6FF0546B4F1FF3F02D0044B1B78DF
:10084C001C44FFF7EDFF401BA042FAD338BD00BF9C
:10085C000000002082B0084B1B68084AA2FB03234F
:10086C005B0A00FB03F3019300BF019B5A1E01922C
:10087C00002BF9D102B0704708000020D34D621054
:10088C00002800F08A8270B582B00446036813B168
:10089C0013F00F0F2AD0236813F0010F40D06368B8
:1008AC002BB1B3F5803F02D0B3F5A02F24D1A94BC7
:1008BC005B6803F00C03042B29D0A64B5B6803F098
:1008CC000C03082B1ED06368B3F5803F55D0002B6A
:1008DC0069D103F1804303F504331A6822F48032A2
:1008EC001A601A6822F480221A604BE040F26711F9
:1008FC009948FFF7B7FCCEE740F26D119648FFF729
:10090C00B1FCD4E7934B5B6813F4803FDBD0914B85
:10091C001B6813F4003F03D06368002B00F03F8288
:10092C00236813F0020F00F089802369012B63D830
:10093C0063691F2B66D8874B5B6813F00C0F6CD068
:10094C00844B5B6803F00C03082B61D02369002BEC
:10095C0000F09980814B01221A60FFF761FF054678
:10096C007C4B1B6813F0020F40F08480FFF758FF9C
:10097C00401B0228F4D9032016E2764A136843F48C
:10098C0080331360636843B3FFF74AFF0546714B2E
:10099C001B6813F4003FC3D1FFF742FF401B6428D0
:1009AC00F5D9032000E2B3F5A02F09D0694B1A68E2
:1009BC0022F480321A601A6822F480221A60E1E76D
:1009CC0003F18043A3F53C331A6842F480221A6089
:1009DC001A6842F480321A60D4E7FFF721FF05460B
:1009EC005C4B1B6813F4003F9AD0FFF719FF401BB8
:1009FC006428F5D90320D7E140F2A1115648FFF73E
:100A0C0031FC95E74FF4D1715348FFF72BFC92E77B
:100A1C00504B5B6813F4803F98D14E4B1B6813F01E
:100A2C00020F03D02369012B40F0BB81494A1368A4
:100A3C0023F0F803616943EAC1031360236813F0E0
:100A4C00080F3BD0A369012B2FD8A369002B50D0E2
:100A5C00434B01221A60FFF7E3FE05463D4B5B6AF0
:100A6C0013F0020F27D1FFF7DBFE401B0228F5D94C
:100A7C00032099E1374A136823F0F803616943EACC
:100A8C00C1031360DAE7354B00221A60FFF7C8FE8A
:100A9C000546304B1B6813F0020FCFD0FFF7C0FE9A
:100AAC00401B0228F5D903207EE14FF4F1712A484E
:100ABC00FFF7D8FBC9E70120FFF7CCFE236813F042
:100ACC00040F00F0A680E368012B01D9052B22D17D
:100ADC00204BDB6913F0805F23D11E4BDA6942F0A7
:100AEC008052DA61DB6903F080530193019B01258D
:100AFC0018E01B4B00221A60FFF792FE0546154BBF
:100B0C005B6A13F0020FD9D0FFF78AFE401B022854
:100B1C00F5D9032048E140F211210F48FFF7A2FB61
:100B2C00D6E700250F4B1B6813F4807F1CD0E368BD
:100B3C00012B2DD0002B43D103F1804303F504335B
:100B4C001A6A22F001021A621A6A22F004021A626C
:100B5C0023E000BF00100240CC1700080000424206
:100B6C008004424200700040934A136843F480733F
:100B7C001360FFF755FE06468F4B1B6813F4807FFE
:100B8C00D5D1FFF74DFE801B6428F5D903200BE16E
:100B9C008A4A136A43F001031362E36833B3FFF725
:100BAC003FFE0646854B1B6A13F0020F2FD1FFF751
:100BBC0037FE801B41F288339842F3D90320F3E0CF
:100BCC00052B09D07D4B1A6A22F001021A621A6AAF
:100BDC0022F004021A62E0E7784B1A6A42F004022F
:100BEC001A621A6A42F001021A62D6E7FFF718FE7F
:100BFC000646724B1B6A13F0020F08D0FFF710FE6B
:100C0C00801B41F288339842F3D90320CCE0002DAD
:100C1C0053D1E369022B56D8E369002B00F0C38053
:100C2C00664A526802F00C02082A00F0A680022BD9
:100C3C0040F08F80236A13B1B3F5803F49D1636ACA
:100C4C004BB3B3F5802F26D0B3F5002F23D0B3F5DB
:100C5C00402F20D0B3F5801F1DD0B3F5A01F1AD0A4
:100C6C00B3F5C01F17D0B3F5E01F14D0B3F5001FB8
:100C7C0011D0B3F5101F0ED0B3F5201F0BD0B3F568
:100C8C00301F08D0B3F5401F05D0B3F5501F02D06C
:100C9C00B3F5601F23D14A4B00221A60FFF7C0FD49
:100CAC000546464B1B6813F0007F1ED0FFF7B8FDBE
:100CBC00401B0228F5D9032076E0404AD36923F083
:100CCC008053D361A5E740F2AF213E48FFF7CAFA43
:100CDC00A2E74FF42E713B48FFF7C4FAAFE740F29E
:100CEC00B9213848FFF7BEFAD5E7236AB3F5803F40
:100CFC001AD032494B6823F47413226A606A024397
:100D0C0013434B602E4B01221A60FFF789FD0446FA
:100D1C002A4B1B6813F0007F19D1FFF781FD001BD4
:100D2C000228F5D903203FE0A36813B1B3F5003FC7
:100D3C0007D1224A536823F40033A1680B43536054
:100D4C00D7E740F2CF211F48FFF78CFAF1E70020DC
:100D5C002AE01B4B00221A60FFF762FD0446174B7A
:100D6C001B6813F0007F06D0FFF75AFD001B02280A
:100D7C00F5D9032018E0002016E0012B16D00F4BFC
:100D8C005B6803F48031226A914211D103F4701331
:100D9C00626A93420ED1002006E0012070470120C8
:100DAC0002E0012000E0002002B070BD0120FBE752
:100DBC000120F9E70120F7E7007000400010024025
:100DCC0060004242CC17000886B0164B0FCB0DF1D9
:100DDC00180C0CE90F0040F20123ADF80430124B53
:100DEC005B6803F00C02082A02D0104806B070476A
:100DFC00C3F38342624412F8102C13F4803F0CD0DE
:100E0C00094B5B68C3F34043634413F8143C074835
:100E1C0000FB02F0B0FBF3F0E8E7054800FB02F042
:100E2C00E4E700BF041800080010024000127A002A
:100E3C0000093D00002800F0FC8070B50D4604460A
:100E4C00036813F00F0F6DD0022D71D87D4B1B680A
:100E5C0003F00703AB420BD27A4A136823F0070363
:100E6C002B431360136803F00703AB4240F0E3809D
:100E7C00236813F0020F29D013F0040F04D0724A28
:100E8C00536843F4E0635360236813F0080F04D0F5
:100E9C006D4A536843F460535360A3687BB1802B55
:100EAC000DD0902B0BD0A02B09D0B02B07D0C02B82
:100EBC0005D0D02B03D0E02B01D0F02B3ED1624AD1
:100ECC00536823F0F003A1680B435360236813F0BD
:100EDC00010F4DD06368022B36D86368012B39D0D3
:100EEC00022B3ED0584A126812F0020F00F0A58077
:100EFC0055494A6822F0030213434B60FFF790FCFC
:100F0C000646514B5B6803F00C036268B3EB820F2F
:100F1C002ED0FFF785FC801B41F288339842F0D924
:100F2C00032079E04FF44E714848FFF79BF98BE7AB
:100F3C0040F239314548FFF795F987E740F25F31C8
:100F4C004248FFF78FF9BAE740F266313F48FFF7A6
:100F5C0089F9C2E73C4A126812F4003FC8D101205B
:100F6C005AE0394A126812F0007FC1D1012053E0D7
:100F7C00344B1B6803F00703AB420AD9314A1368A0
:100F8C0023F007032B431360136803F00703AB42F2
:100F9C0055D1236813F0040F14D0E3685BB1B3F59B
:100FAC00806F08D0B3F5A06F05D0B3F5C06F02D039
:100FBC00B3F5E06F31D1244A536823F4E063E16860
:100FCC000B435360236813F0080F15D023695BB1F2
:100FDC00B3F5806F08D0B3F5A06F05D0B3F5C06F33
:100FEC0002D0B3F5E06F1ED1174A536823F4605357
:100FFC00216943EAC1035360FFF7E6FE124B5B68BD
:10100C00C3F30313124AD35CD840124B1860124B33
:10101C001868FFF7C1FB002070BD4FF469710B48D5
:10102C00FFF720F9C7E740F2AB310848FFF71AF990
:10103C00DAE7012070470120EEE70120ECE7012000
:10104C00EAE700BF0020024000100240CC17000865
:10105C00C01800080800002004000020014B18688C
:10106C00704700BF0800002008B5FFF7F7FF044BDE
:10107C005B68C3F30223034AD35CD84008BD00BFAE
:10108C0000100240D018000808B5FFF7E7FF044B2A
:10109C005B68C3F3C223034AD35CD84008BD00BFCE
:1010AC0000100240D01800082DE9F04383B08046B0
:1010BC000E46BD4B98420FD003F5806398420BD07F
:1010CC0003F58063984207D003F58063984203D000
:1010DC00BD21B648FFF7C6F833689AB212B11B0CA3
:1010EC001B041BB1BE21B148FFF7BCF87368012B80
:1010FC001ED9112B1CD0022B1AD0122B18D0AC4A93
:10110C00934215D002F58012934211D002F5801251
:10111C0093420DD0A2F5F812934209D002F5801239
:10112C00934205D002F58012934201D0032B03D1D8
:10113C004FF000094D4691E0BF219C48FFF792F813
:10114C00F6E79C4A934210D007D99B4A93420CD0A5
:10115C0002F58032934208D01BE0A2F58012934234
:10116C0003D002F5702293420FD1B368022B00F228
:10117C00F880B368002B00F00181012B00F0F680A1
:10118C00C8F814404FF0080903E0A2F5801293420E
:10119C00EBD0FF2F00F2F5804046FF2F00F2F480D9
:1011AC00AA0003680F21914023EA010309FA02F215
:1011BC0013430360736813F0805F4ED07F4B9A69C2
:1011CC0042F001029A619B6903F001030193019BB8
:1011DC00AA08911C7A4B53F8210005F003039900DF
:1011EC000F238B4020EA03006F4B984500F0D28010
:1011FC0003F58063984500F0CF8003F58063984534
:10120C0000F0C68003238B40034302326C4941F843
:10121C002230736813F4803F00F0C080694A136871
:10122C003B431360736813F4003F00F0CD80654AB4
:10123C0053683B435360736813F4801F00F0CA80FB
:10124C00604A93683B439360736813F4001F00F08B
:10125C00C7805C4AD3681F43D7600135336833FAC3
:10126C0005F200F0C3800124AC4003EA040734EA21
:10127C000303F2D14C4B98450FD003F5806398458E
:10128C000BD003F58063984507D003F58063984530
:10129C0003D0CD214548FEF7E5FF7368122B3FF6CE
:1012AC0050AF122B3FF675AF01A252F823F000BFDE
:1012BC0077110008091300083B130008831300087A
:1012CC009F1100089F1100089F1100089F11000832
:1012DC009F1100089F1100089F1100089F11000822
:1012EC009F1100089F1100089F1100089F11000812
:1012FC009F1100082113000855130008F368013BE7
:10130C00022B02D8D6F80C9043E7D5212748FEF7DC
:10131C00A9FFF7E7F368013B022B03D8F36803F14D
:10132C00040936E7DC212148FEF79CFFF6E7F36859
:10133C00013B022B03D8F36803F1080929E7E321E9
:10134C001A48FEF78FFFF6E7F368013B022B03D830
:10135C00F36803F10C091CE7EA211448FEF782FF3D
:10136C00F6E7F7211148FEF77DFF02E7C8F81040B9
:10137C004FF008090DE74FF000090AE74FF0040998
:10138C0007E708F1040008E7A5F10802920008E756
:10139C00022338E7002336E7012334E7094A1368B0
:1013AC0023EA070313603DE7000801401818000802
:1013BC00000011100000221000003110001002403B
:1013CC0000000140000401400A4A536823EA070365
:1013DC00536030E7074A936823EA0703936033E7C7
:1013EC00044AD36823EA0707D76036E703B0BDE8A1
:1013FC00F08300BF0004014070B5054614460E464C
:10140C0021B1012C08D86CB12E6170BD4FF4EA717A
:10141C000648FEF727FFF4E740F2D5110348FEF724
:10142C0021FFF0E736042E61EFE700BF1818000823
:10143C0038B505460C4641B1EB6804EA030224EAD0
:10144C00030444EA02442C6138BD4FF4F67102489F
:10145C00FEF708FFF0E700BF1818000810B50446A7
:10146C00C31E042B0FD80A4AD36823F4E0631B0471
:10147C001B0C240204F4E064234343F0BF6343F4E5
:10148C000033D36010BD92210248FEF7EBFEEAE771
:10149C0000ED00E05018000870B505460C461646E5
:1014AC000F2A25D80F2C28D81B4BDB68C3F302233B
:1014BC00C3F10701042928BF04211A1D062A21D9CA
:1014CC00033B4FF0FF3202FA01F124EA01049C4085
:1014DC0002FA03F326EA03063443002D14DB24013D
:1014EC00E4B205F1604505F5614585F8004370BD32
:1014FC00AA210A48FEF7B6FED4E7AB210748FEF74F
:10150C00B1FED1E70023DCE705F00F052401E4B2BE
:10151C00034B5C55EBE700BF00ED00E050180008F2
:10152C0014ED00E00138B0F1807F0AD2064B586010
:10153C00064AF02182F823100020986007221A60D6
:10154C0070470120704700BF10E000E000ED00E0A4
:10155C0010B504464268374B9A4256D8E36813B12B
:10156C00B3F5005F57D123692BB1B3F5806F02D06F
:10157C00B3F5C06F55D163694FF6F372134200D1C6
:10158C0023B940F656612C48FEF76CFE22681369AD
:10159C0023F44053E1680B431361A368226913439E
:1015AC0062691A432168CB6823F4B05323F00C030F
:1015BC001343CB602268536923F44073A1690B4336
:1015CC00536122681D4B9A4231D0FFF74DFD00EB61
:1015DC00800303EB830362689200B3FBF2F21848BA
:1015EC00A0FB02314909642303FB11231B01323395
:1015FC00A0FB03235B0903F0F00202EB011203F0E2
:10160C000F03216813448B6010BD40F653610A48E8
:10161C00FEF728FEA2E740F654610748FEF722FECB
:10162C00A1E740F655610448FEF71CFEA3E7FFF75F
:10163C002BFDCCE720AA4400881800080038014094
:10164C001F85EB51002864D010B504468369EBB1BB
:10165C000368314A934208D0A2F57442934204D0F5
:10166C004FF4B6712D48FEF7FDFDA369DBB1B3F560
:10167C00807F18D0B3F5007F15D0B3F5407F12D022
:10168C0040F26D112548FEF7EDFD0CE00368224A8F
:10169C00934208D0A2F57442934204D040F27111E7
:1016AC001E48FEF7DFFDA36813B1B3F5805F24D1AC
:1016BC0094F83D303BB3242384F83D302268D36842
:1016CC0023F40053D3602046FFF742FF22681369CE
:1016DC0023F4904313612268536923F02A03536166
:1016EC002268D36843F40053D36000202064202385
:1016FC0084F83D3084F83E3010BD40F27311074839
:10170C00FEF7B0FDD4E784F83C302046FEF78AFEA5
:10171C00D1E70120704700BF00380140881800084D
:10172C00704700000C480D490D4A002302E0D458C4
:10173C00C4500433C4188C42F9D30A4A0A4C00230F
:10174C0001E013600432A242FBD3FFF7E9FFFEF77E
:10175C001BFDFEF76FFD7047000000200C00002001
:10176C00E01800080C000020C4000020FEE7000078
:10177C00F8B500BFF8BC08BC9E467047F8B500BF72
:08178C00F8BC08BC9E46704742
:10179400447269766572732F53544D3332463178EF
:1017A400785F48414C5F4472697665722F53726367
:1017B4002F73746D3332663178785F68616C5F695A
:1017C40032632E6300000000447269766572732FE1
:1017D40053544D3332463178785F48414C5F4472FC
:1017E400697665722F5372632F73746D3332663169
:1017F40078785F68616C5F7263632E630000000039
:1018040002030405060708090A0B0C0D0E0F10103D
:1018140000000000447269766572732F53544D338F
:1018240032463178785F48414C5F4472697665721C
:101834002F5372632F73746D3332663178785F6817
:10184400616C5F6770696F2E630000004472697693
:101854006572732F53544D3332463178785F484163
:101864004C5F4472697665722F5372632F73746D83
:101874003332663178785F68616C5F636F72746568
:10188400782E6300447269766572732F53544D3316
:1018940032463178785F48414C5F447269766572AC
:1018A4002F5372632F73746D3332663178785F68A7
:1018B400616C5F756172742E6300000000000000AB
:1018C40000000000010203040607080900000000EC
:0418D4000102030406
:0418D800750100088E
:0418DC004D010008B2
:0C18E00001000000100000000024F400D3
:0400000508001731A7
:00000001FF
